{
  "_format": "hh-sol-artifact-1",
  "contractName": "BuyMeACoffee",
  "sourceName": "contracts/BuyMeACoffee.sol",
  "abi": [
    {
      "inputs": [],
      "stateMutability": "nonpayable",
      "type": "constructor"
    },
    {
      "anonymous": false,
      "inputs": [
        {
          "indexed": true,
          "internalType": "address",
          "name": "from",
          "type": "address"
        },
        {
          "indexed": false,
          "internalType": "uint256",
          "name": "timestamp",
          "type": "uint256"
        },
        {
          "indexed": false,
          "internalType": "string",
          "name": "name",
          "type": "string"
        },
        {
          "indexed": false,
          "internalType": "string",
          "name": "message",
          "type": "string"
        }
      ],
      "name": "NewMemo",
      "type": "event"
    },
    {
      "inputs": [
        {
          "internalType": "string",
          "name": "_name",
          "type": "string"
        },
        {
          "internalType": "string",
          "name": "_message",
          "type": "string"
        }
      ],
      "name": "buyCoffee",
      "outputs": [],
      "stateMutability": "payable",
      "type": "function"
    },
    {
      "inputs": [],
      "name": "getMemos",
      "outputs": [
        {
          "components": [
            {
              "internalType": "address",
              "name": "from",
              "type": "address"
            },
            {
              "internalType": "uint256",
              "name": "timestamp",
              "type": "uint256"
            },
            {
              "internalType": "string",
              "name": "name",
              "type": "string"
            },
            {
              "internalType": "string",
              "name": "message",
              "type": "string"
            }
          ],
          "internalType": "struct BuyMeACoffee.Memo[]",
          "name": "",
          "type": "tuple[]"
        }
      ],
      "stateMutability": "view",
      "type": "function"
    },
    {
      "inputs": [],
      "name": "owner",
      "outputs": [
        {
          "internalType": "address payable",
          "name": "",
          "type": "address"
        }
      ],
      "stateMutability": "view",
      "type": "function"
    },
    {
      "inputs": [],
      "name": "withdrawTips",
      "outputs": [],
      "stateMutability": "nonpayable",
      "type": "function"
    }
  ],
  "bytecode": "0x608060405234801561001057600080fd5b50336000806101000a81548173ffffffffffffffffffffffffffffffffffffffff021916908373ffffffffffffffffffffffffffffffffffffffff160217905550610f1d806100606000396000f3fe60806040526004361061003f5760003560e01c8063204206e1146100445780633aaa74b214610060578063865c5172146100775780638da5cb5b146100a2575b600080fd5b61005e60048036038101906100599190610706565b6100cd565b005b34801561006c57600080fd5b50610075610247565b005b34801561008357600080fd5b5061008c6103a5565b6040516100999190610983565b60405180910390f35b3480156100ae57600080fd5b506100b7610588565b6040516100c491906109c6565b60405180910390f35b60003411610110576040517f08c379a000000000000000000000000000000000000000000000000000000000815260040161010790610a3e565b60405180910390fd5b600160405180608001604052803373ffffffffffffffffffffffffffffffffffffffff16815260200142815260200184815260200183815250908060018154018082558091505060019003906000526020600020906004020160009091909190915060008201518160000160006101000a81548173ffffffffffffffffffffffffffffffffffffffff021916908373ffffffffffffffffffffffffffffffffffffffff1602179055506020820151816001015560408201518160020190816101d89190610c6a565b5060608201518160030190816101ee9190610c6a565b5050503373ffffffffffffffffffffffffffffffffffffffff167fc56140e05f516509ae28110e0f72e17558a7561630dad2647c3ae87d986e365c42848460405161023b93929190610d84565b60405180910390a25050565b60008054906101000a900473ffffffffffffffffffffffffffffffffffffffff1673ffffffffffffffffffffffffffffffffffffffff163373ffffffffffffffffffffffffffffffffffffffff16146102d5576040517f08c379a00000000000000000000000000000000000000000000000000000000081526004016102cc90610e15565b60405180910390fd5b60008060009054906101000a900473ffffffffffffffffffffffffffffffffffffffff1673ffffffffffffffffffffffffffffffffffffffff164760405161031c90610e66565b60006040518083038185875af1925050503d8060008114610359576040519150601f19603f3d011682016040523d82523d6000602084013e61035e565b606091505b50509050806103a2576040517f08c379a000000000000000000000000000000000000000000000000000000000815260040161039990610ec7565b60405180910390fd5b50565b60606001805480602002602001604051908101604052809291908181526020016000905b8282101561057f57838290600052602060002090600402016040518060800160405290816000820160009054906101000a900473ffffffffffffffffffffffffffffffffffffffff1673ffffffffffffffffffffffffffffffffffffffff1673ffffffffffffffffffffffffffffffffffffffff1681526020016001820154815260200160028201805461045c90610a8d565b80601f016020809104026020016040519081016040528092919081815260200182805461048890610a8d565b80156104d55780601f106104aa576101008083540402835291602001916104d5565b820191906000526020600020905b8154815290600101906020018083116104b857829003601f168201915b505050505081526020016003820180546104ee90610a8d565b80601f016020809104026020016040519081016040528092919081815260200182805461051a90610a8d565b80156105675780601f1061053c57610100808354040283529160200191610567565b820191906000526020600020905b81548152906001019060200180831161054a57829003601f168201915b505050505081525050815260200190600101906103c9565b50505050905090565b60008054906101000a900473ffffffffffffffffffffffffffffffffffffffff1681565b6000604051905090565b600080fd5b600080fd5b600080fd5b600080fd5b6000601f19601f8301169050919050565b7f4e487b7100000000000000000000000000000000000000000000000000000000600052604160045260246000fd5b610613826105ca565b810181811067ffffffffffffffff82111715610632576106316105db565b5b80604052505050565b60006106456105ac565b9050610651828261060a565b919050565b600067ffffffffffffffff821115610671576106706105db565b5b61067a826105ca565b9050602081019050919050565b82818337600083830152505050565b60006106a96106a484610656565b61063b565b9050828152602081018484840111156106c5576106c46105c5565b5b6106d0848285610687565b509392505050565b600082601f8301126106ed576106ec6105c0565b5b81356106fd848260208601610696565b91505092915050565b6000806040838503121561071d5761071c6105b6565b5b600083013567ffffffffffffffff81111561073b5761073a6105bb565b5b610747858286016106d8565b925050602083013567ffffffffffffffff811115610768576107676105bb565b5b610774858286016106d8565b9150509250929050565b600081519050919050565b600082825260208201905092915050565b6000819050602082019050919050565b600073ffffffffffffffffffffffffffffffffffffffff82169050919050565b60006107d5826107aa565b9050919050565b6107e5816107ca565b82525050565b6000819050919050565b6107fe816107eb565b82525050565b600081519050919050565b600082825260208201905092915050565b60005b8381101561083e578082015181840152602081019050610823565b60008484015250505050565b600061085582610804565b61085f818561080f565b935061086f818560208601610820565b610878816105ca565b840191505092915050565b600060808301600083015161089b60008601826107dc565b5060208301516108ae60208601826107f5565b50604083015184820360408601526108c6828261084a565b915050606083015184820360608601526108e0828261084a565b9150508091505092915050565b60006108f98383610883565b905092915050565b6000602082019050919050565b60006109198261077e565b6109238185610789565b9350836020820285016109358561079a565b8060005b85811015610971578484038952815161095285826108ed565b945061095d83610901565b925060208a01995050600181019050610939565b50829750879550505050505092915050565b6000602082019050818103600083015261099d818461090e565b905092915050565b60006109b0826107aa565b9050919050565b6109c0816109a5565b82525050565b60006020820190506109db60008301846109b7565b92915050565b600082825260208201905092915050565b7f63616e27742062757920636f6666656520666f72206672656521000000000000600082015250565b6000610a28601a836109e1565b9150610a33826109f2565b602082019050919050565b60006020820190508181036000830152610a5781610a1b565b9050919050565b7f4e487b7100000000000000000000000000000000000000000000000000000000600052602260045260246000fd5b60006002820490506001821680610aa557607f821691505b602082108103610ab857610ab7610a5e565b5b50919050565b60008190508160005260206000209050919050565b60006020601f8301049050919050565b600082821b905092915050565b600060088302610b207fffffffffffffffffffffffffffffffffffffffffffffffffffffffffffffffff82610ae3565b610b2a8683610ae3565b95508019841693508086168417925050509392505050565b6000819050919050565b6000610b67610b62610b5d846107eb565b610b42565b6107eb565b9050919050565b6000819050919050565b610b8183610b4c565b610b95610b8d82610b6e565b848454610af0565b825550505050565b600090565b610baa610b9d565b610bb5818484610b78565b505050565b5b81811015610bd957610bce600082610ba2565b600181019050610bbb565b5050565b601f821115610c1e57610bef81610abe565b610bf884610ad3565b81016020851015610c07578190505b610c1b610c1385610ad3565b830182610bba565b50505b505050565b600082821c905092915050565b6000610c4160001984600802610c23565b1980831691505092915050565b6000610c5a8383610c30565b9150826002028217905092915050565b610c7382610804565b67ffffffffffffffff811115610c8c57610c8b6105db565b5b610c968254610a8d565b610ca1828285610bdd565b600060209050601f831160018114610cd45760008415610cc2578287015190505b610ccc8582610c4e565b865550610d34565b601f198416610ce286610abe565b60005b82811015610d0a57848901518255600182019150602085019450602081019050610ce5565b86831015610d275784890151610d23601f891682610c30565b8355505b6001600288020188555050505b505050505050565b610d45816107eb565b82525050565b6000610d5682610804565b610d6081856109e1565b9350610d70818560208601610820565b610d79816105ca565b840191505092915050565b6000606082019050610d996000830186610d3c565b8181036020830152610dab8185610d4b565b90508181036040830152610dbf8184610d4b565b9050949350505050565b7f4f6e6c79206f776e65722063616e207769746864726177207469707300000000600082015250565b6000610dff601c836109e1565b9150610e0a82610dc9565b602082019050919050565b60006020820190508181036000830152610e2e81610df2565b9050919050565b600081905092915050565b50565b6000610e50600083610e35565b9150610e5b82610e40565b600082019050919050565b6000610e7182610e43565b9150819050919050565b7f5472616e73666572206661696c65640000000000000000000000000000000000600082015250565b6000610eb1600f836109e1565b9150610ebc82610e7b565b602082019050919050565b60006020820190508181036000830152610ee081610ea4565b905091905056fea264697066735822122040307b354b8b7dbc533317dd6e9a55423c7f95fb1162709ff6824137d123130264736f6c63430008180033",
  "linkReferences": {},
  "deployedLinkReferences": {}
}